:100000000C9439010C94C7050C949C050C94710553
:100010000C9446050C941B050C94F0040C94C50438
:100020000C949A040C946A010C946A010C946A0171
:100030000C946A010C946A010C946A010C946A0194
:100040000C946A010C946A010C946A010C946A0184
:100050000C946A010C946A010C946A010C9450048B
:100060000C946A010C941C060C94F2050C946A0121
:100070000C946A010C946A010C946A010C946A0154
:100080000C946A010C946A010C946A010C946A0144
:100090000C946A010C946A010C946A010C946A0134
:1000A0000C946A010C946A010C946A010C946A0124
:1000B0000C946A010C946A010C946A010C946A0114
:1000C0000C946A010C946A010C946A010C946A0104
:1000D0000C946A010C946A010C946A010C946A01F4
:1000E0000C946A010C940E020C9470020C94C401DE
:1000F0000C94EE010C944D020C94D9010C94200246
:100100000C94C6030C940A020C947E020C94000218
:100110000C94DD010C945C020C94E8010C94180220
:100120000C9414020C94F8010C94FC010C94E10161
:100130000C9406020C94F2010C9425070C94C9014E
:100140000C9403030C94B6020C941F020C94E5016A
:10015000000020002300260029002C002F00320080
:100160000001000003010601090100000A0B020959
:100170000C0D0E0807030401000000000000000041
:10018000000000000000000000000000000000006F
:10019000000000000000121110000000000000002C
:1001A000000000000000000000000000000000004F
:1001B00000002200250028002B002E003100340012
:1001C00002010000050108010B01000021002400CC
:1001D00027002A002D003000330001010000040137
:1001E00007010A01050505050705080808080202B8
:1001F00002020A0A080804040404010101010101C1
:1002000001010303030303030303040707070C0CA3
:100210000C0C0C0C0C0C020202020606060606066A
:1002200006060B0B0B0B0B0B0B0B0102102020080F
:100230000810204010204080020102010804020141
:1002400001020408102040808040201008040201B0
:100250008004020180402010080402010804020109
:100260000102040810204080010204081020408090
:10027000250711241FBECFEFD1E2DEBFCDBF00E0C6
:100280000CBF12E0A0E0B2E0E8EAF4E100E00BBF4E
:1002900002C007900D92A435B107D9F722E0A4E57A
:1002A000B2E001C01D92AA3FB207E1F711E0C9E335
:1002B000D1E000E006C021970109802FFE010E94D5
:1002C0007407C833D10780E00807A9F70E945206D7
:1002D0000C94520A0C940000CF93DF9390E0FC0141
:1002E000E65DFD4F24918C519E4FFC018491882343
:1002F000C1F090E0880F991FFC01E653FE4FC591B5
:10030000D491FC01E055FE4FA591B4919FB7F894AC
:100310008881E22FE0958E2388838C91E823EC93EB
:100320009FBFDF91CF910895282F30E0F901E65962
:10033000FE4F9491F901E65DFD4F44912C513E4FE3
:10034000F9012491222309F477C0992311F19150E6
:100350009231F8F4E92FF0E08827EE54FE4F8F4FEA
:100360000C947407E101E501C401D901DD01C90163
:10037000E801EE01F201F801FC01000206020A02A6
:10038000C9010E0214021802809180008F778093B9
:100390008000E22FF0E0EE0FFF1FE05BFE4FA59123
:1003A000B491EC91E42381E090E009F047C080E053
:1003B0000895809180008F7DEACF80918000877FB3
:1003C000E6CF84B58F7784BDE4CF84B58F7DFBCF36
:1003D0008091B0008F778093B000DBCF8091B00028
:1003E0008F7DF9CF809190008F7780939000D1CF4F
:1003F000809190008F7DF9CF80919000877FF5CF1D
:100400008091A0008F778093A000C3CF8091A0003F
:100410008F7DF9CF8091A000877FF5CF809120015B
:100420008F7780932001B5CF809120018F7DF9CF08
:1004300080912001877FF5CF80E090E008950895B6
:10044000AF92BF92CF92DF92EF92FF920F931F93E2
:10045000CF93DF936C017B018B01040F151FEB0120
:100460005E01AE18BF08C017D10759F06991D601D7
:10047000ED91FC910190F081E02DC6011995892B39
:1004800079F7C501DF91CF911F910F91FF90EF9008
:10049000DF90CF90BF90AF900895FC01538D448DB5
:1004A000252F30E0842F90E0821B930B541710F01F
:1004B000CF96089501970895FC01918D828D98172C
:1004C00061F0A28DAE0FBF2FB11D5D968C91928D04
:1004D0009F5F9F73928F90E008958FEF9FEF089535
:1004E000FC01918D828D981731F0828DE80FF11DFE
:1004F000858D90E008958FEF9FEF0895FC01918D19
:10050000228D892F90E0805C9F4F821B91098F7311
:10051000992708958DE592E00E947E0221E0892BC3
:1005200009F420E0822F0895FC01A48DA80FB92FB3
:10053000B11DA35ABF4F2C91848D90E001968F730B
:100540009927848FA689B7892C93A089B1898C912A
:10055000837080648C93938D848D981306C0028879
:10056000F389E02D80818F7D80830895EF92FF9243
:100570000F931F93CF93DF93EC0181E0888F9B8DC6
:100580008C8D98131AC0E889F989808185FF15C080
:100590009FB7F894EE89FF896083E889F9898081A3
:1005A0008370806480839FBF81E090E0DF91CF9172
:1005B0001F910F91FF90EF900895F62E0B8D10E094
:1005C0000F5F1F4F0F731127E02E8C8D8E110CC003
:1005D0000FB607FCFACFE889F989808185FFF5CF4E
:1005E000CE010E949402F1CFEB8DEC0FFD2FF11D97
:1005F000E35AFF4FF0829FB7F8940B8FEA89FB898B
:1006000080818062CFCFCF93DF93EC01888D8823E8
:10061000B9F0AA89BB89E889F9898C9185FD03C065
:10062000808186FD0DC00FB607FCF7CF8C9185FF4A
:10063000F2CF808185FFEDCFCE010E949402E9CFF9
:10064000DF91CF91089580E090E0892B29F00E94FE
:100650008A0281110E94000080E090E0892B49F01D
:1006600080E090E0892B29F00E94000081110E9417
:10067000000080E090E0892B49F080E090E0892B39
:1006800029F00E94000081110E94000080E090E0AB
:10069000892B49F080E090E0892B29F00E9400002E
:1006A00081110C9400000895FC0101900020E9F7ED
:1006B0003197AF01481B590BBC018DE592E00C94BA
:1006C00020028F929F92AF92BF920F931F93CF936E
:1006D000DF93CDB7DEB7A1970FB6F894DEBF0FBE9C
:1006E000CDBF19A2423008F44AE08E010F5D1F4FC2
:1006F000842E912CB12CA12CA50194010E945207AB
:10070000E62FB901CA01EA30F4F4E05DD801EE93B6
:100710008D01232B242B252B79F790E080E0109777
:1007200019F0CD010E945403A1960FB6F894DEBFD4
:100730000FBECDBFDF91CF911F910F91BF90AF90B2
:100740009F908F900895E95CE1CFCF92DF92EF9276
:10075000FF92CF93DF936B017C016DE28DE592E018
:100760000E94B602EC0166277727CB016C197D0940
:100770008E099F094AE00E9461038C0F9D1FDF9143
:10078000CF91FF90EF90DF90CF900895AF92BF92FE
:10079000DF92EF92FF920F931F93CF93DF93CDB72A
:1007A000DEB72F970FB6F894DEBF0FBECDBF3AE28B
:1007B000E32E32E0F32E10E000E0F70181917F019B
:1007C0000E949401DD24D394892B09F4D12C6D2D42
:1007D00070E090E080E04AE00E946103000F111F8A
:1007E0000D0D111DFAE3EF16F2E0FF0631F789E374
:1007F00092E00E94540392E2A92E92E0B92EF12CCD
:10080000E12CF50181915F010E949401DD24D394D4
:10081000892B09F4D12C6D2D70E090E080E04AE046
:100820000E946103EE0CFF1CED0CF11CFAE2AF1606
:10083000F2E0BF0631F783E00E949401892B71F545
:1008400087E5FF92EF921F928F931F930F938FE391
:1008500092E09F938F938E010F5F1F4F1F930F9313
:100860000E947C07C8010E94540380E592E00E9428
:1008700054030FB6F894DEBF0FBECDBF2F960FB650
:10088000F894DEBF0FBECDBFDF91CF911F910F91C6
:10089000FF90EF90DF90BF90AF90089582E7D1CFA7
:1008A0001F920F920FB60F9211242F933F938F93A5
:1008B0009F93AF93BF938091590290915A02A09158
:1008C0005B02B0915C023091580223E0230F2D3778
:1008D00058F50196A11DB11D20935802809359022D
:1008E00090935A02A0935B02B0935C0280915402F1
:1008F00090915502A0915602B09157020196A11D08
:10090000B11D8093540290935502A0935602B09368
:100910005702BF91AF919F918F913F912F910F906F
:100920000FBE0F901F90189526E8230F0296A11D69
:10093000B11DD2CF1F920F920FB60F9211240BB69A
:100940000F922F933F934F935F936F937F938F9368
:100950009F93AF93BF93EF93FF93E0910E02F091BB
:100960000F021995FF91EF91BF91AF919F918F91D8
:100970007F916F915F914F913F912F910F900BBE9F
:100980000F900FBE0F901F9018951F920F920FB6E9
:100990000F9211240BB60F922F933F934F935F93B7
:1009A0006F937F938F939F93AF93BF93EF93FF9337
:1009B000E0910C02F0910D021995FF91EF91BF911A
:1009C000AF919F918F917F916F915F914F913F91E7
:1009D0002F910F900BBE0F900FBE0F901F90189588
:1009E0001F920F920FB60F9211240BB60F922F93F6
:1009F0003F934F935F936F937F938F939F93AF93A7
:100A0000BF93EF93FF93E0910202F09103021995D7
:100A1000FF91EF91BF91AF919F918F917F916F91D6
:100A20005F914F913F912F910F900BBE0F900FBE92
:100A30000F901F9018951F920F920FB60F921124CE
:100A40000BB60F922F933F934F935F936F937F93C8
:100A50008F939F93AF93BF93EF93FF93E091000227
:100A6000F09101021995FF91EF91BF91AF919F9184
:100A70008F917F916F915F914F913F912F910F9047
:100A80000BBE0F900FBE0F901F9018951F920F92E4
:100A90000FB60F9211240BB60F922F933F934F93E3
:100AA0005F936F937F938F939F93AF93BF93EF93D6
:100AB000FF93E0910A02F0910B021995FF91EF91DB
:100AC000BF91AF919F918F917F916F915F914F9166
:100AD0003F912F910F900BBE0F900FBE0F901F9064
:100AE00018951F920F920FB60F9211240BB60F920A
:100AF0002F933F934F935F936F937F938F939F9326
:100B0000AF93BF93EF93FF93E0910802F091090236
:100B10001995FF91EF91BF91AF919F918F917F9127
:100B20006F915F914F913F912F910F900BBE0F905E
:100B30000FBE0F901F9018951F920F920FB60F9235
:100B400011240BB60F922F933F934F935F936F93A4
:100B50007F938F939F93AF93BF93EF93FF93E09116
:100B60000602F09107021995FF91EF91BF91AF91A5
:100B70009F918F917F916F915F914F913F912F91B5
:100B80000F900BBE0F900FBE0F901F9018951F92E5
:100B90000F920FB60F9211240BB60F922F933F9323
:100BA0004F935F936F937F938F939F93AF93BF9375
:100BB000EF93FF93E0910402F09105021995FF91E4
:100BC000EF91BF91AF919F918F917F916F915F91C5
:100BD0004F913F912F910F900BBE0F900FBE0F9032
:100BE0001F9018951F920F920FB60F9211240BB6FB
:100BF0000F922F933F934F935F936F937F938F93B6
:100C00009F93AF93BF93EF93FF938DE592E00E9484
:100C10009402FF91EF91BF91AF919F918F917F913E
:100C20006F915F914F913F912F910F900BBE0F905D
:100C30000FBE0F901F9018951F920F920FB60F9234
:100C400011240BB60F922F938F939F93EF93FF93E3
:100C5000E0916D02F0916E028081E0917302F0915B
:100C6000740282FD1DC09081809176028F5F8F7328
:100C700020917702821741F0E0917602F0E0E35A8A
:100C8000FD4F958F80937602FF91EF919F918F9109
:100C90002F910F900BBE0F900FBE0F901F901895C5
:100CA0008081F2CF789484B5826084BD84B5816000
:100CB00084BD85B5826085BD85B5816085BD809127
:100CC0006E00816080936E0010928100809181009F
:100CD0008260809381008091810081608093810097
:100CE000809180008160809380008091B100846059
:100CF0008093B1008091B00081608093B0008091BA
:100D00009100826080939100809191008160809336
:100D10009100809190008160809390008091A1006B
:100D200082608093A1008091A10081608093A100E6
:100D30008091A00081608093A00080912101826059
:100D40008093210180912101816080932101809114
:100D5000200181608093200180917A0084608093DB
:100D60007A0080917A00826080937A0080917A0084
:100D7000816080937A0080917A00806880937A0005
:100D80001092C100CAE2D2E00AE312E089910E9407
:100D90006C010C171D07D1F7C2E2D2E00AE212E0A3
:100DA00089910E946C010C171D07D1F782E00E9407
:100DB0006C0183E00E946C0186EC93E09093010249
:100DC0008093000280916A00836080936A00EC9AAD
:100DD000E0916D02F0916E0282E08083E0916D02FD
:100DE000F0916E021082E0916902F0916A02108225
:100DF000E0916B02F0916C0280E1808310927502A9
:100E0000E0917102F091720286E08083E0916F02BE
:100E1000F0917002808180618083E0916F02F09197
:100E20007002808188608083E0916F02F09170028F
:100E3000808180688083E0916F02F09170028081F0
:100E40008F7D80830E942303FDCFEDE5F2E01382C6
:100E5000128288EE93E0A0E0B0E084839583A683BD
:100E6000B78384E192E09183808385EC90E095875D
:100E7000848784EC90E09787868780EC90E0918B64
:100E8000808B81EC90E0938B828B82EC90E0958B51
:100E9000848B86EC90E0978B868B118E128E138E4E
:100EA000148E0895A1E21A2EAA1BBB1BFD010DC0D2
:100EB000AA1FBB1FEE1FFF1FA217B307E407F5070A
:100EC00020F0A21BB30BE40BF50B661F771F881FE6
:100ED000991F1A9469F760957095809590959B017C
:100EE000AC01BD01CF010895EE0FFF1F881F8BBF1E
:100EF0000790F691E02D19940F931F93CF93DF93F2
:100F0000CDB7DEB72E970FB6F894DEBF0FBECDBFBC
:100F10000E891F8986E08C831A8309838FEF9FE7F0
:100F20009E838D83AE01465E5F4F688D798DCE01C5
:100F300001960E94AC072F813885020F131FF8011C
:100F400010822E960FB6F894DEBF0FBECDBFDF9194
:100F5000CF911F910F9108952F923F924F925F92E0
:100F60006F927F928F929F92AF92BF92CF92DF92B9
:100F7000EF92FF920F931F93CF93DF9300D000D097
:100F800000D01F921F92CDB7DEB77C013B018A01D2
:100F9000FC0117821682838181FFDDC1CE0101969B
:100FA0005C01F7019381F30193FD859193FF81919A
:100FB0003F01882309F453C1853239F493FD8591AB
:100FC00093FF81913F01853229F4B70190E00E949F
:100FD000C409E7CF912C212C312CFFE1F31538F017
:100FE0008B3211F190F4803209F1833229F137FC10
:100FF0003CC020ED280F2A3050F536FE20C08AE094
:10100000989E200D1124922E06C08D3291F08033CF
:1010100071F7689430F8F30193FD859193FF819106
:101020003F018111DACF21C0689431F8689432F819
:10103000F2CF689433F8EFCF689434F8ECCFEAE05D
:101040002E9E200D1124222E689435F8E4CF8E3286
:1010500029F436FC04C1689436F8DDCF8C3619F4D7
:10106000689437F8D8CF8836B1F2982F9F7D955481
:101070009330E0F08336A1F18337C1F1833509F075
:1010800063C02801F2E04F0E511CF801C080D180EE
:10109000692D70E036FC02C06FEF7FEFC6010E9441
:1010A000AE094C01689437F882010AC00C5F1F4FEB
:1010B000FFE3F98388248394912C6501E89437F841
:1010C00033FE2DC0522C8114910471F5552009F482
:1010D00068CFB70180E290E00E94C4095A94F6CF2D
:1010E000F801808189830E5F1F4FE4CF2801F2E071
:1010F0004F0E511CF801C080D180692D70E036FC84
:1011000002C06FEF7FEFC6010E94B9094C01820156
:10111000D5CFB70180E290E00E94C4092A94281438
:10112000190409F0B0F7CECFF60137FC859137FEF0
:1011300081916F01B70190E00E94C40951105A9447
:10114000F1E08F1A9108BFCF843619F0893609F083
:1011500077C0F80137FE6BC0608171818281938115
:101160000C5F1F4FF32DFF763F2E97FF09C0909520
:101170008095709561957F4F8F4F9F4F689437F89A
:101180002AE030E0A5010E94F409C82ECA188C2C70
:10119000432C36FE0CC0E89440F8C91440F434FEE9
:1011A00005C032FC03C0F32DFE7E4F2E892C44FE79
:1011B000AAC0FE01EC0DF11D8081803309F09CC0B6
:1011C000242D297E422E842D8870582E43FCAAC0DF
:1011D00040FEA4C09C2C821418F42C0C922C98185D
:1011E00044FEA6C0B70180E390E00E94C40942FE1D
:1011F00009C088E790E041FE02C088E590E0B701B1
:101200000E94C409C91408F49FC0CA94D12C9FEF4E
:10121000C91AD90ACA0CDB1CF60182916F01B70109
:1012200090E00E94C409AC14BD04B1F74FCF6081B7
:101230007181072E000C880B990B0E5F1F4F92CF08
:10124000D32CE894D4F82AE030E08537E1F1232D5F
:10125000297FD22E8F36A9F1F0F4883551F1F701AC
:10126000868197812B960FB6F894DEBF0FBECDBF57
:10127000DF91CF911F910F91FF90EF90DF90CF9072
:10128000BF90AF909F908F907F906F905F904F90A6
:101290003F902F900895803749F0883701F7D4FEAA
:1012A00002C06894D2F820E130E00DC06894D4F810
:1012B000F6CF34FE03C0822F8660D82E20E132E0C4
:1012C00002C028E030E0F801D7FE0FC060817181D4
:1012D000828193810C5F1F4FA5010E94F409C82EE3
:1012E000CA183D2CE89437F852CF6081718190E0A4
:1012F00080E00E5F1F4FF0CF42FC02C0839463CFAB
:101300008394839460CF842D867809F45CCFF6CFE4
:10131000B70180E290E00E94C40983948214C0F374
:10132000512C5ECF522C5818821408F459CFF8CFA4
:10133000842D867809F466CF8BE241FE80E247FC7B
:101340008DE2B70190E05CCFB70180E390E00E94AE
:10135000C4099A9457CF8FEF9FEF84CFFC0105907B
:10136000615070400110D8F7809590958E0F9F1FA7
:101370000895FC016150704001900110D8F78095EC
:1013800090958E0F9F1F08950F931F93CF93DF9318
:10139000182F092FEB018B8181FD09C01FEF0FEF83
:1013A000812F902FDF91CF911F910F91089582FF90
:1013B00014C02E813F818C819D81281739073CF410
:1013C000E881F981CF0101969983888310838E810A
:1013D0009F8101969F838E83E3CFE885F985812FD6
:1013E0001995892BA1F3DACFFA01AA27283051F1F8
:1013F000203181F1E8946F936E7F6E5F7F4F8F4F46
:101400009F4FAF4FB1E03ED0B4E03CD0670F781FA4
:10141000891F9A1FA11D680F791F8A1F911DA11D89
:101420006A0F711D811D911DA11D20D009F46894C2
:101430003F912AE0269F11243019305D3193DEF66A
:10144000CF010895462F4770405D4193B3E00FD020
:10145000C9F7F6CF462F4F70405D4A3318F0495D0B
:1014600031FD4052419302D0A9F7EACFB4E0A695EE
:101470009795879577956795BA95C9F70097610510
:10148000710508959B01AC010A2E06945795479566
:1014900037952795BA95C9F7620F731F841F951F5B
:0814A000A01D0895F894FFCF90
:1014A8001F021F021F021F021F021F021F021F022C
:1014B80000000000B60220024D0203037E025C0217
:1014C800700227292B2D2F31333532302E2C2A2824
:1014D800262422201E1C1A18162020202020002036
:1014E80020253034782020202563202530327800CC
:0414F8000D0A0000D9
:00000001FF
