:100000000C9439010C9437050C940C050C94E10404
:100010000C94B6040C948B040C9460040C9435047A
:100020000C940A040C946A010C946A010C946A0101
:100030000C946A010C946A010C946A010C946A0194
:100040000C946A010C946A010C946A010C946A0184
:100050000C946A010C946A010C946A010C94C0031C
:100060000C946A010C948C050C9462050C946A0142
:100070000C946A010C946A010C946A010C946A0154
:100080000C946A010C946A010C946A010C946A0144
:100090000C946A010C946A010C946A010C946A0134
:1000A0000C946A010C946A010C946A010C946A0124
:1000B0000C946A010C946A010C946A010C946A0114
:1000C0000C946A010C946A010C946A010C946A0104
:1000D0000C946A010C946A010C946A010C946A01F4
:1000E0000C946A010C948C030C9451030C948503BA
:1000F0000C9492030C94B8030C94A4030C94D101B7
:100100000C947D030C949C030C9495010C94AE0309
:100110000C9478020C942B020C94A0030C94AA0368
:100120000C94B2030C94F3010C9417030C94810308
:100130000C94C2010C94BC030C9456030C949603CB
:100140000C94E5010C9488060C9489030C9494019A
:10015000000020002300260029002C002F00320080
:100160000001000003010601090100000A0B020959
:100170000C0D0E0807030401000000000000000041
:10018000000000000000000000000000000000006F
:10019000000000000000121110000000000000002C
:1001A000000000000000000000000000000000004F
:1001B00000002200250028002B002E003100340012
:1001C00002010000050108010B01000021002400CC
:1001D00027002A002D003000330001010000040137
:1001E00007010A01050505050705080808080202B8
:1001F00002020A0A080804040404010101010101C1
:1002000001010303030303030303040707070C0CA3
:100210000C0C0C0C0C0C020202020606060606066A
:1002200006060B0B0B0B0B0B0B0B0102102020080F
:100230000810204010204080020102010804020141
:1002400001020408102040808040201008040201B0
:100250008004020180402010080402010804020109
:100260000102040810204080010204081020408090
:10027000880611241FBECFEFD1E2DEBFCDBF00E064
:100280000CBF12E0A0E0B2E0E2ECFDE000E00BBF4A
:1002900002C007900D92A433B107D9F722E0A4E37E
:1002A000B2E001C01D92AA3DB207E1F711E0C9E337
:1002B000D1E000E006C021970109802FFE010E94D5
:1002C000D706C833D10780E00807A9F70E94C20506
:1002D0000C94DF060C940000CF93DF9390E0FC01B8
:1002E000E65DFD4F24918C519E4FFC018491882343
:1002F000C1F090E0880F991FFC01E653FE4FC591B5
:10030000D491FC01E055FE4FA591B4919FB7F894AC
:100310008881E22FE0958E2388838C91E823EC93EB
:100320009FBFDF91CF9108950895AF92BF92CF9272
:10033000DF92EF92FF920F931F93CF93DF936C01A5
:100340007B018B01040F151FEB015E01AE18BF0886
:10035000C017D10759F06991D601ED91FC91019038
:10036000F081E02DC6011995892B79F7C501DF9140
:10037000CF911F910F91FF90EF90DF90CF90BF90A2
:10038000AF900895FC01538D448D252F30E0842FCC
:1003900090E0821B930B541710F0CF9608950197AD
:1003A0000895FC01918D828D981761F0A28DAE0F9A
:1003B000BF2FB11D5D968C91928D9F5F9F73928F21
:1003C00090E008958FEF9FEF0895FC01918D828D4D
:1003D000981731F0828DE80FF11D858D90E008951A
:1003E0008FEF9FEF0895FC01918D228D892F90E072
:1003F000805C9F4F821B91098F73992708958DE32D
:1004000092E00E94F30121E0892B09F420E0822F81
:100410000895FC01A48DA80FB92FB11DA35ABF4F99
:100420002C91848D90E001968F739927848FA689F3
:10043000B7892C93A089B1898C91837080648C9347
:10044000938D848D981306C00288F389E02D8081F6
:100450008F7D80830895EF92FF920F931F93CF9328
:10046000DF93EC0181E0888F9B8D8C8D98131AC0EF
:10047000E889F989808185FF15C09FB7F894EE89D6
:10048000FF896083E889F989808183708064808333
:100490009FBF81E090E0DF91CF911F910F91FF907E
:1004A000EF900895F62E0B8D10E00F5F1F4F0F7326
:1004B0001127E02E8C8D8E110CC00FB607FCFACFE1
:1004C000E889F989808185FFF5CFCE010E94090274
:1004D000F1CFEB8DEC0FFD2FF11DE35AFF4FF082B2
:1004E0009FB7F8940B8FEA89FB8980818062CFCF18
:1004F000CF93DF93EC01888D8823B9F0AA89BB895B
:10050000E889F9898C9185FD03C0808186FD0DC045
:100510000FB607FCF7CF8C9185FFF2CF808185FF66
:10052000EDCFCE010E940902E9CFDF91CF9108956E
:1005300080E090E0892B29F00E94FF0181110E9448
:10054000000080E090E0892B49F080E090E0892B6A
:1005500029F00E94000081110E94000080E090E0DC
:10056000892B49F080E090E0892B29F00E9400005F
:1005700081110E94000080E090E0892B49F080E02A
:1005800090E0892B29F00E94000081110C9400005A
:1005900008958F929F92AF92BF920F931F93CF9324
:1005A000DF93CDB7DEB7A1970FB6F894DEBF0FBECD
:1005B000CDBF19A2423008F44AE08E010F5D1F4FF3
:1005C000842E912CB12CA12CA50194010E94B5067A
:1005D000E62FB901CA01EA3044F5E05DD801EE9397
:1005E0008D01232B242B252B79F790E080E01097A9
:1005F00069F0FD0101900020E9F73197AF014A1B36
:100600005B0BBD018DE392E00E949501A1960FB6B0
:10061000F894DEBF0FBECDBFDF91CF911F910F9138
:10062000BF90AF909F908F900895E95CD7CF0F93C4
:100630001F93CF93DF93C2E2D2E002E312E029914D
:1006400030E0F901E659FE4F8491F901E65DFD4F76
:1006500094912C513E4FF901249170E060E02223E7
:1006600009F434C0882311F181508231F8F4E82F65
:10067000F0E08827E15CFC4F8F4F0C94D706850390
:10068000890351037D03810356038C039203960370
:100690009C03A003A403AA03AE035603B203B8034A
:1006A000BC03809180008F7780938000E22FF0E080
:1006B000EE0FFF1FE05BFE4FA591B491EC919E23DE
:1006C00021E080E009F420E0622F782F072E000C53
:1006D000880B990B4AE00E94C9020C171D0709F00C
:1006E000AECF42E050E061E372E08DE392E0DF9153
:1006F000CF911F910F910C949501809180008F7D77
:10070000D3CF80918000877FCFCF84B58F7784BD92
:10071000CDCF84B58F7DFBCF8091B0008F77809354
:10072000B000C4CF8091B0008F7DF9CF8091900050
:100730008F7780939000BACF809190008F7DF9CF12
:1007400080919000877FF5CF8091A0008F77809374
:10075000A000ACCF8091A0008F7DF9CF8091A00048
:10076000877FF5CF809120018F77809320019ECFE6
:10077000809120018F7DF9CF80912001877FF5CF77
:100780001F920F920FB60F9211242F933F938F93C6
:100790009F93AF93BF938091390290913A02A091B9
:1007A0003B02B0913C023091380223E0230F2D37F9
:1007B00058F50196A11DB11D20933802809339028E
:1007C00090933A02A0933B02B0933C028091340292
:1007D00090913502A0913602B09137020196A11D89
:1007E000B11D8093340290933502A0933602B093EA
:1007F0003702BF91AF919F918F913F912F910F90B1
:100800000FBE0F901F90189526E8230F0296A11D8A
:10081000B11DD2CF1F920F920FB60F9211240BB6BB
:100820000F922F933F934F935F936F937F938F9389
:100830009F93AF93BF93EF93FF93E0910E02F091DC
:100840000F021995FF91EF91BF91AF919F918F91F9
:100850007F916F915F914F913F912F910F900BBEC0
:100860000F900FBE0F901F9018951F920F920FB60A
:100870000F9211240BB60F922F933F934F935F93D8
:100880006F937F938F939F93AF93BF93EF93FF9358
:10089000E0910C02F0910D021995FF91EF91BF913B
:1008A000AF919F918F917F916F915F914F913F9108
:1008B0002F910F900BBE0F900FBE0F901F901895A9
:1008C0001F920F920FB60F9211240BB60F922F9317
:1008D0003F934F935F936F937F938F939F93AF93C8
:1008E000BF93EF93FF93E0910202F09103021995F9
:1008F000FF91EF91BF91AF919F918F917F916F91F8
:100900005F914F913F912F910F900BBE0F900FBEB3
:100910000F901F9018951F920F920FB60F921124EF
:100920000BB60F922F933F934F935F936F937F93E9
:100930008F939F93AF93BF93EF93FF93E091000248
:10094000F09101021995FF91EF91BF91AF919F91A5
:100950008F917F916F915F914F913F912F910F9068
:100960000BBE0F900FBE0F901F9018951F920F9205
:100970000FB60F9211240BB60F922F933F934F9304
:100980005F936F937F938F939F93AF93BF93EF93F7
:10099000FF93E0910A02F0910B021995FF91EF91FC
:1009A000BF91AF919F918F917F916F915F914F9187
:1009B0003F912F910F900BBE0F900FBE0F901F9085
:1009C00018951F920F920FB60F9211240BB60F922B
:1009D0002F933F934F935F936F937F938F939F9347
:1009E000AF93BF93EF93FF93E0910802F091090258
:1009F0001995FF91EF91BF91AF919F918F917F9149
:100A00006F915F914F913F912F910F900BBE0F907F
:100A10000FBE0F901F9018951F920F920FB60F9256
:100A200011240BB60F922F933F934F935F936F93C5
:100A30007F938F939F93AF93BF93EF93FF93E09137
:100A40000602F09107021995FF91EF91BF91AF91C6
:100A50009F918F917F916F915F914F913F912F91D6
:100A60000F900BBE0F900FBE0F901F9018951F9206
:100A70000F920FB60F9211240BB60F922F933F9344
:100A80004F935F936F937F938F939F93AF93BF9396
:100A9000EF93FF93E0910402F09105021995FF9105
:100AA000EF91BF91AF919F918F917F916F915F91E6
:100AB0004F913F912F910F900BBE0F900FBE0F9053
:100AC0001F9018951F920F920FB60F9211240BB61C
:100AD0000F922F933F934F935F936F937F938F93D7
:100AE0009F93AF93BF93EF93FF938DE392E00E94A8
:100AF0000902FF91EF91BF91AF919F918F917F91EB
:100B00006F915F914F913F912F910F900BBE0F907E
:100B10000FBE0F901F9018951F920F920FB60F9255
:100B200011240BB60F922F938F939F93EF93FF9304
:100B3000E0914D02F0914E028081E0915302F091DC
:100B4000540282FD1DC09081809156028F5F8F7389
:100B500020915702821741F0E0915602F0E0E35CE9
:100B6000FD4F958F80935602FF91EF919F918F914A
:100B70002F910F900BBE0F900FBE0F901F901895E6
:100B80008081F2CF789484B5826084BD84B5816021
:100B900084BD85B5826085BD85B5816085BD809148
:100BA0006E00816080936E001092810080918100C0
:100BB00082608093810080918100816080938100B8
:100BC000809180008160809380008091B10084607A
:100BD0008093B1008091B00081608093B0008091DB
:100BE0009100826080939100809191008160809358
:100BF0009100809190008160809390008091A1008D
:100C000082608093A1008091A10081608093A10007
:100C10008091A00081608093A0008091210182607A
:100C20008093210180912101816080932101809135
:100C3000200181608093200180917A0084608093FC
:100C40007A0080917A00826080937A0080917A00A5
:100C5000816080937A0080917A00806880937A0026
:100C60001092C100C2E2D2E002E312E089910E9438
:100C70006C010C171D07D1F782E00E946C0187E11F
:100C800093E0909301028093000280916A00836058
:100C900080936A00EC9AE0914D02F0914E0282E05E
:100CA0008083E0914D02F0914E021082E091490262
:100CB000F0914A021082E0914B02F0914C0280E1E7
:100CC000808310925502E0915102F091520286E029
:100CD0008083E0914F02F091500280818061808397
:100CE000E0914F02F0915002808188608083E09112
:100CF0004F02F0915002808180688083E0914F0222
:100D0000F091500280818F7D80830E949802FDCFF8
:100D1000EDE3F2E01382128288EE93E0A0E0B0E00F
:100D200084839583A683B78384E192E09183808353
:100D300085EC90E09587848784EC90E097878687A0
:100D400080EC90E0918B808B81EC90E0938B828B98
:100D500082EC90E0958B848B86EC90E0978B868B71
:100D6000118E128E138E148E0895A1E21A2EAA1BD4
:100D7000BB1BFD010DC0AA1FBB1FEE1FFF1FA2174B
:100D8000B307E407F50720F0A21BB30BE40BF50B48
:100D9000661F771F881F991F1A9469F760957095D1
:100DA000809590959B01AC01BD01CF010895EE0F98
:100DB000FF1F881F8BBF0790F691E02D1994F894C0
:020DC000FFCF63
:100DC2009401940194019401940194019401940179
:100DD200000000002B029501C2017802F301D1014B
:100DE200E50132302E2C2A28262422201E1C1A1815
:040DF200160D0A00D0
:00000001FF
